:100000000C9462000C948A000C948A000C948A0070
:100010000C948A000C948A000C948A000C948A0038
:100020000C948A000C948A000C948A000C948A0028
:100030000C948A000C948A000C948A000C948A0018
:100040000C94D0000C948A000C9417020C943D027E
:100050000C948A000C948A000C948A000C948A00F8
:100060000C948A000C948A000000000024002700F1
:100070002A0000000000250028002B0000000000DE
:1000800023002600290004040404040404040202DA
:100090000202020203030303030301020408102007
:1000A0004080010204081020010204081020000012
:1000B0000007000201000003040600000000000029
:1000C0000000630211241FBECFEFD8E0DEBFCDBF1A
:1000D00011E0A0E0B1E0E4EDF8E002C005900D927F
:1000E000A431B107D9F711E0A4E1B1E001C01D923C
:1000F000AA3BB107E1F710E0C4ECD0E004C02297BE
:10010000FE010E946404C23CD107C9F70E94A3000B
:100110000C9468040C94000026E00E946903089582
:10012000CF93DF93CDE1D1E0CE0140E855E260E02E
:1001300070E00E948C00CE0160E071E00E942D040E
:10014000DF91CF9108950E9418010E94900083E0F2
:1001500061E00E94800185E061E00E94800189E009
:1001600061E00E9480018AE061E00E9480018BE0F2
:1001700061E00E94800183E061E00E94C50185E0AA
:1001800061E00E94C50189E061E00E94C5018AE04A
:1001900061E00E94C5018BE061E00E94C501FFCFD4
:1001A0001F920F920FB60F9211242F933F938F93AC
:1001B0009F93AF93BF938091180190911901A091E3
:1001C0001A01B0911B0130911C010196A11DB11DB6
:1001D000232F2D5F2D3720F02D570196A11DB11D26
:1001E00020931C018093180190931901A0931A0188
:1001F000B0931B018091140190911501A0911601FB
:10020000B09117010196A11DB11D80931401909327
:100210001501A0931601B0931701BF91AF919F9163
:100220008F913F912F910F900FBE0F901F901895B7
:10023000789484B5826084BD84B5816084BD85B5C1
:10024000826085BD85B5816085BDEEE6F0E0808188
:1002500081608083E1E8F0E01082808182608083A9
:10026000808181608083E0E8F0E08081816080832C
:10027000E1EBF0E0808184608083E0EBF0E080815E
:1002800081608083EAE7F0E0808184608083808100
:1002900082608083808181608083808180688083A8
:1002A0001092C1000895833071F0843028F48130B9
:1002B000A1F0823021F514C08630B1F08730D1F042
:1002C0008430E9F404C0809180008F7703C080916E
:1002D00080008F7D80938000089584B58F7702C061
:1002E00084B58F7D84BD08958091B0008F77809311
:1002F000B00008958091B0008F7D8093B000089584
:10030000EF92FF92CF93DF9390E0FC01E656FF4F10
:1003100044918A579F4FFC018491882389F190E092
:10032000880F991FFC01E859FF4F25913491D9019D
:100330008E589F4FFC0125913491E22EE7017E01FA
:10034000F32EE701662349F49FB7F8948C9140950A
:1003500084238C93888184230BC0623059F49FB727
:10036000F8948C91242F209582238C938881842B60
:10037000888305C09FB7F8948C91842B8C939FBF82
:10038000DF91CF91FF90EF9008950F931F93DF932C
:10039000CF930F92CDB7DEB7282F30E0F901E255A9
:1003A000FF4F8491F901E656FF4F14912A573F4FB2
:1003B000F90104910023D9F0882321F069830E9478
:1003C00053016981E02FF0E0EE0FFF1FEE58FF4F61
:1003D00085919491DC019FB7F894662321F48C9168
:1003E0001095812302C08C91812B8C939FBF0F901D
:1003F000CF91DF911F910F910895FC01A089B189E0
:100400008C91A689B78982FD10C09C91818D8F5FE8
:100410008F73228D821751F0218DDF01A20FB11D44
:100420005D969C935D97818F08958C9108951F929E
:100430000F920FB60F9211242F933F934F935F9318
:100440006F937F938F939F93AF93BF93EF93FF939C
:100450008DE191E00E94FD01FF91EF91BF91AF917D
:100460009F918F917F916F915F914F913F912F91CC
:100470000F900FBE0F901F9018951F920F920FB6FE
:100480000F9211242F933F934F935F936F937F931A
:100490008F939F93AF93BF93EF93FF938DE191E081
:1004A0000E94C702FF91EF91BF91AF919F918F91F1
:1004B0007F916F915F914F913F912F910F900FBE60
:1004C0000F901F9018951092200110921F0188EE36
:1004D00093E0A0E0B0E08093210190932201A093EB
:1004E0002301B0932401EFE1F1E088E091E09293E1
:1004F000829385EC90E09587848784EC90E09787E1
:10050000868780EC90E0918B808B81EC90E0938BE0
:10051000828B82EC90E0958B848B86EC90E0978BBD
:10052000868B118E128E138E148E0895FC01218DF0
:10053000828D30E0205C3F4F281B31092F733070D3
:10054000C9010895FC01918D828D981731F0828D3B
:10055000E80FF11D258D30E002C02FEF3FEFC901FC
:100560000895FC01918D828D981769F0828DDF01CD
:10057000A80FB11D5D962C915D97828D8F5F8F7353
:10058000828F30E002C02FEF3FEFC9010895FC01D8
:10059000848DDF01A80FB11DA35ABF4F2C91848D0C
:1005A00090E001968F739070848FA689B7892C9301
:1005B000A089B1898C9180648C93938D848D9817D8
:1005C00031F40288F389E02D80818F7D8083089546
:1005D000EF92FF921F93DF93CF930F92CDB7DEB7C9
:1005E0007C01DC015B969C915B975C968C915C979F
:1005F000981709F046C05096ED91FC915197808173
:1006000085FF3FC05696ED91FC91579760835096B9
:10061000ED91FC91519780818064808329C00FB651
:1006200007FC0DC0D7015096ED91FC915197808148
:1006300085FF05C0C70169830E94C7026981F70170
:10064000848D181761F3838DE80FF11DE35AFF4F76
:100650006083D7015B961C935B975296ED91FC915A
:10066000539780818062808381E058968C9358975D
:1006700081E090E00F90CF91DF911F91FF90EF907C
:100680000895F701138D1F5F1F73D9CFCF93DF93A9
:10069000EC01888D882361F419C0808185FF0AC030
:1006A000A889B9898C9185FF05C0CE010E94C70237
:1006B000EA89FB89808185FD05C0A889B9898C916B
:1006C00086FD04C00FB607FEE8CFF4CFDF91CF91CF
:1006D0000895DF92EF92FF920F931F93CF93DF93D2
:1006E000EC017A018B01D22EE889F98982E08083BE
:1006F000403081EE580780E0680780E07807A1F07D
:1007000060E079E08DE390E0A80197010E94400449
:100710002150304040405040569547953795279599
:1007200080E12030380798F0E889F989108260E884
:1007300074E88EE190E0A80197010E9440042150E6
:100740003040404050405695479537952795EC8569
:10075000FD853083EE85FF852083188EEC89FD8929
:10076000D082EA89FB89808180618083EA89FB8964
:10077000808188608083EA89FB89808180688083AA
:10078000EA89FB8980818F7D8083DF91CF911F91E2
:100790000F91FF90EF90DF900895CF92DF92EF924C
:1007A000FF920F931F93CF93DF936C017B018A011C
:1007B000C0E0D0E00FC0D7016D917D01D601ED9171
:1007C000FC910190F081E02DC6010995C80FD91F59
:1007D000015010400115110571F7CE01DF91CF9145
:1007E0001F910F91FF90EF90DF90CF9008956115CA
:1007F000710591F0DB010D900020E9F7AD0141504A
:100800005040461B570BDC01ED91FC910280F381B7
:10081000E02D09959C0102C020E030E0C901089557
:10082000DC01ED91FC910190F081E02D0995089596
:100830000F931F93CF93DF93EC016DE00E941004A0
:100840008C01CE016AE00E941004080F191FC80134
:10085000DF91CF911F910F9108950F931F93CF9325
:10086000DF93EC010E94F7038C01CE010E94180473
:10087000080F191FC801DF91CF911F910F910895A3
:10088000A1E21A2EAA1BBB1BFD010DC0AA1FBB1F94
:10089000EE1FFF1FA217B307E407F50720F0A21B06
:1008A000B30BE40BF50B661F771F881F991F1A9473
:1008B00069F760957095809590959B01AC01BD019D
:1008C000CF010895EE0FFF1F0590F491E02D0994DC
:0408D000F894FFCFCA
:1008D4004869210000000000E802CD039602B1023D
:0408E400A202460323
:00000001FF
